:020000040800F2
:10000000005000200D010008FD070008FF07000850
:1000100001080008030800080508000800000000A7
:1000200000000000000000000000000007080008B9
:1000300009080008000000000B0800080D0800086F
:100040005101000851010008510100085101000848
:100050005101000851010008510100085101000838
:100060005101000851010008510100085101000828
:100070005101000851010008510100085101000818
:100080005101000851010008510100085101000808
:1000900051010008510100085101000851010008F8
:1000A00051010008510100085101000851010008E8
:1000B00051010008390800085101000851010008E9
:1000C00051010008510100085101000851010008C8
:1000D00051010008110800085101000851010008F1
:1000E0005101000851010008510100080000000002
:1000F0000000000000000000000000000000000000
:0C01000000000000000000005FF808F1A3
:10010C00002103E00A4B5B584350043109480A4B69
:10011C0042189A42F6D3094A02E0002342F8043B03
:10012C00074B9A42F9D300F00FF800F041FB7047EF
:10013C0088080008000000201C0000201C00002083
:10014C0024000020FEE70000374B82B01A6842F012
:10015C0001021A605968354A0A405A601A6822F03E
:10016C00847222F480321A601A6822F480221A6097
:10017C005A6822F4FE025A604FF41F029A60002261
:10018C00009201921A6842F480321A601A6802F4E2
:10019C0000320192009A01320092019A1AB9009A27
:1001AC00B2F5A06FF2D11A6812F4003218BF012216
:1001BC000192019A012A30D11D4A116841F01001B7
:1001CC001160116821F003011160116841F0020106
:1001DC0011605A685A605A685A605A6842F48062D0
:1001EC005A605A6822F47C125A605A6842F4E81237
:1001FC005A601A6842F080721A601A689201FCD533
:10020C005A6822F003025A605A6842F002025A609D
:10021C005A6802F00C02082AFAD14FF00062054B22
:10022C009A6002B0704700BF001002400000FFF857
:10023C000020024000ED00E0CB782DE9F041DA0619
:10024C0048BF8A780E8803F00F0548BF154316F097
:10025C00FF0F1AD000214FF0010C4FF00F0E026867
:10026C000CFA01F737EA06040BD18C000EFA04F8ED
:10027C0022EA080205FA04F4282B42EA040224D1EB
:10028C00476101310829EBD10260FF2E1BD90824EC
:10029C004FF0010C4FF00F0E41680CFA04F737EADF
:1002AC0006020CD1A200203A0EFA02F821EA08014B
:1002BC0005FA02F2282B41EA02010AD14761013406
:1002CC00102CEAD14160BDE8F081482B08BF0761D2
:1002DC00D7E7482B08BF0761F1E70161704741611F
:1002EC007047000070B50125017801F01F039D4097
:1002FC00C3784C09C3B10F4BDA684378D243C2F3CD
:10030C000222C2F1040603FA06F683780F2020FAC3
:10031C0002F213403343084A1B01DBB2114481F84B
:10032C00003342F8245070BD034B203443F8245062
:10033C00F9E700BF00ED00E000E100E0044B042809
:10034C001A680CBF42F0040222F004021A607047D3
:10035C0010E000E0224A038890429BB212D002F5D2
:10036C00006290420ED0B0F1804F0BD0A2F59832C3
:10037C00904207D002F58062904203D002F5806271
:10038C00904203D14A8823F070031343154A9042DC
:10039C0008D002F5806290421FBF23F44073CA88D4
:1003AC009BB2134303808B8883850B8803850C4B8E
:1003BC0098420FD003F5006398420BD003F54063CD
:1003CC00984207D003F58063984203D003F580630D
:1003DC00984201D10B7A038601238382704700BFB8
:1003EC00002C014000100040038819B143F00103B8
:1003FC000380704723F001031B041B0CF8E783896F
:10040C0012B119438181704723EA0101FAE7038A8B
:10041C00828911EA030092B203D00A4214BF012070
:10042C0000207047C94389B20182704730B50D4630
:10043C000446038A8A899BB2C98823F440530B4330
:10044C0003828389A98823F4B05323F00C030B4354
:10045C00298987B00B4369890B438381838A9BB2BB
:10046C0023F440731343838201A800F079F8DDE98B
:10047C000313154A944208BF19461923A2894B430A
:10048C00296810044CBF49008900B3FBF1F16425C5
:10049C00B1FBF5F3A2891801120405FB13130BD55C
:1004AC00DA003232B2FBF5F202F0070242EA000344
:1004BC009BB2238107B030BD1B013233B3FBF5F384
:1004CC0003F00F030343F3E700380140838919B1AC
:1004DC0043F400538381704723F400531B041B0C1B
:1004EC00F8E701F01F0310B5C1F342140121012CF0
:1004FC0001FA03F105D10C3003683AB119430160DC
:10050C0010BD022C0CBF10301430F5E723EA0101AA
:10051C00F5E7C1F30801818070478088C0F30800BB
:10052C0070470123C1F3421210B5012A01F01F04D8
:10053C0003FA04F30DD182891340028892B26BB195
:10054C000123090A03FA01F10A4214BF18460020DC
:10055C0010BD022A0CBF028A828AEDE71846F7E723
:10056C001C4A10B5536803F00C03042B01D0082B64
:10057C001FD0194B03605368184CC3F30313E15C91
:10058C000368CB4043605168C1F30221615C23FADC
:10059C0001F181605168C1F3C221615CCB40C36041
:1005AC0052680F49C2F381328A5CB3FBF2F30361E8
:1005BC0010BD53685168C3F38343CC0303F10203AA
:1005CC0002D408494B43D5E751688903F9D4024951
:1005DC00F8E700BF0010024000127A00080000206B
:1005EC000400002000093D00054B19B19969014335
:1005FC00996170479A6922EA00029A61704700BFBC
:10060C0000100240054B19B1D9690143D9617047FB
:10061C00DA6922EA0002DA61704700BF001002407A
:10062C0030B50C4685B0054601210220FFF7EAFFE4
:10063C000023ADF804400B4C01A92046ADF80A305C
:10064C00ADF80630ADF80850FFF784FE01222046C5
:10065C001146FFF7D4FE01212046FFF7C5FE05B079
:10066C0030BD00BF00040040012307B58DF80730F2
:10067C0040F2254301A8ADF80430FFF733FE03B078
:10068C005DF804FB012307B58DF8073040F21D33EC
:10069C0001A8ADF80430FFF725FE03B05DF804FBAC
:1006AC00084A08B5D36823F4E0631B041B0C43F021
:1006BC00BF6343F40033D360FFF7D6FFBDE80840B7
:1006CC00FFF7E0BF00ED00E008B56FF00400FFF7A6
:1006DC0035FE064B064A1B68B3FBF2F3054A136062
:1006EC004FF47A725343044A136008BD0000002093
:1006FC0000127A00200000201C00002007B5012108
:10070C000820FFF771FF044B01A904480193FFF780
:10071C0093FD03B05DF804FB00100310000C0140C6
:10072C0013B50C4C01210420FFF75EFF0A4B01A905
:10073C0020460193FFF780FD04238DF807304FF41A
:10074C00806301A92046ADF80430FFF775FD02B0B7
:10075C0010BD00BF000801400002031808B5FFF7E8
:10076C00CDFFBDE80840FFF7DBBF00001FB5044616
:10077C0001214FF48040FFF737FF00234FF4402254
:10078C0000940A4C69462046CDE90132ADF80C3094
:10079C00FFF74CFE0122204640F22551FFF7A1FE47
:1007AC0001212046FFF792FE04B010BD0038014035
:1007BC0008B5FFF789FFFFF7D1FFFFF771FF4FF483
:1007CC00E130FFF7D3FFFFF77FFF4FF4805107486D
:1007DC00FFF785FD41F61F4141F28730FFF720FFFF
:1007EC004FF480510148FFF77AFDFEE7000C014001
:1007FC007047FEE7FEE7FEE7FEE77047704770477D
:10080C007047000008B540F225510748FFF789FEF4
:10081C0040B10548FFF781FEBDE80840C1B202486F
:10082C00FFF777BE08BD00BF0038014010B50121AD
:10083C000E48FFF7ECFDB8B10D4C01210B48FFF74A
:10084C00F1FD23684FF480510A484BB1FFF745FD89
:10085C00002323606321BDE810400748FFF759BE11
:10086C00FFF73DFD0123F4E710BD00BF000400407D
:0C087C0018000020000C01400038014072
:1008880000A24A0402040608000000000102030452
:0C0898000102030406070809010000002B
:040000050800010DE1
:00000001FF
