:020000040800F2
:10000000005000200D0100084104000843040008CE
:1000100045040008470400084904000800000000E7
:100020000000000000000000000000004B04000879
:100030004D040008000000004F04000851040008AF
:100040005101000851010008510100085101000848
:100050005101000851010008510100085101000838
:100060005101000851010008510100085101000828
:100070005101000851010008510100085101000818
:100080005101000851010008510100085101000808
:1000900051010008510100085101000851010008F8
:1000A00051010008510100085101000851010008E8
:1000B00051010008510100085101000851010008D8
:1000C00051010008510100085101000851010008C8
:1000D00051010008510100085101000851010008B8
:1000E0005101000851010008510100080000000002
:1000F0000000000000000000000000000000000000
:0C01000000000000000000005FF808F1A3
:10010C00002103E00A4B5B584350043109480A4B69
:10011C0042189A42F6D3094A02E0002342F8043B03
:10012C00074B9A42F9D300F00FF800F063F97047CF
:10013C0054040008000000200400002004000020EB
:10014C000C000020FEE70000374B82B01A6842F02A
:10015C0001021A605968354A0A405A601A6822F03E
:10016C00847222F480321A601A6822F480221A6097
:10017C005A6822F4FE025A604FF41F029A60002261
:10018C00009201921A6842F480321A601A6802F4E2
:10019C0000320192009A01320092019A1AB9009A27
:1001AC00B2F5A06FF2D11A6812F4003218BF012216
:1001BC000192019A012A30D11D4A116841F01001B7
:1001CC001160116821F003011160116841F0020106
:1001DC0011605A685A605A685A605A6842F48062D0
:1001EC005A605A6822F47C125A605A6842F4E81237
:1001FC005A601A6842F080721A601A689201FCD533
:10020C005A6822F003025A605A6842F002025A609D
:10021C005A6802F00C02082AFAD14FF00062054B22
:10022C009A6002B0704700BF001002400000FFF857
:10023C000020024000ED00E0CB782DE9F041DA0619
:10024C0048BF8A780E8803F00F0548BF154316F097
:10025C00FF0F1AD000214FF0010C4FF00F0E026867
:10026C000CFA01F737EA06040BD18C000EFA04F8ED
:10027C0022EA080205FA04F4282B42EA040224D1EB
:10028C00476101310829EBD10260FF2E1BD90824EC
:10029C004FF0010C4FF00F0E41680CFA04F737EADF
:1002AC0006020CD1A200203A0EFA02F821EA08014B
:1002BC0005FA02F2282B41EA02010AD14761013406
:1002CC00102CEAD14160BDE8F081482B08BF0761D2
:1002DC00D7E7482B08BF0761F1E70161704741611F
:1002EC0070470000044B04281A680CBF42F004024B
:1002FC0022F004021A60704710E000E0054B19B1BF
:10030C0099690143996170479A6922EA00029A61DE
:10031C00704700BF0010024008B56FF00400FFF7F3
:10032C00E1FF064B064A1B68B3FBF2F3054A136068
:10033C004FF47A725343044A136008BD0000002046
:10034C0000127A00080000200400002000220B4B51
:10035C001B6858430A4B58609A601A6842F00102B5
:10036C001A601A6802F00112012AFAD01A6822F0F7
:10037C0001021A6000229A60704700BF040000203E
:10038C0010E000E007B501210820FFF7B7FF044B90
:10039C0001A904480193FFF74FFF03B05DF804FB7C
:1003AC0000100310000C014013B50C4C012104206B
:1003BC00FFF7A4FF0A4B01A920460193FFF73CFF6E
:1003CC0004238DF807304FF4806301A92046ADF863
:1003DC000430FFF731FF02B010BD00BF0008014030
:1003EC000002031808B5FFF7CDFFBDE80840FFF782
:1003FC00DBBF000008B5FFF7F5FFFFF78DFF4FF4EB
:10040C0080510B48FFF76BFF094C4FF4FA70FFF764
:10041C009DFF4FF480512046FFF75FFF4FF4FA70B9
:10042C00FFF794FF4FF480512046FFF758FFECE79D
:10043C00000C01407047FEE7FEE7FEE7FEE7704761
:08044C00704770477047000083
:0404540000A24A04B4
:040000050800010DE1
:00000001FF
