:020000040800F2
:10000000005000200D010008B1060008B3060008EA
:10001000B5060008B7060008B90600080000000091
:10002000000000000000000000000000BB06000807
:10003000BD06000800000000BF060008C106000859
:100040005101000851010008510100085101000848
:100050005101000851010008510100085101000838
:100060005101000851010008510100085101000828
:100070005101000851010008510100085101000818
:100080005101000851010008510100085101000808
:1000900051010008510100085101000851010008F8
:1000A00051010008510100085101000851010008E8
:1000B00051010008510100085101000851010008D8
:1000C00051010008510100085101000851010008C8
:1000D00051010008510100085101000851010008B8
:1000E0005101000851010008510100080000000002
:1000F0000000000000000000000000000000000000
:0C01000000000000000000005FF808F1A3
:10010C00002103E00A4B5B584350043109480A4B69
:10011C0042189A42F6D3094A02E0002342F8043B03
:10012C00074B9A42F9D300F00FF800F08BFA7047A6
:10013C00C406000800000020180000201800002051
:10014C0020000020FEE70000374B82B01A6842F016
:10015C0001021A605968354A0A405A601A6822F03E
:10016C00847222F480321A601A6822F480221A6097
:10017C005A6822F4FE025A604FF41F029A60002261
:10018C00009201921A6842F480321A601A6802F4E2
:10019C0000320192009A01320092019A1AB9009A27
:1001AC00B2F5A06FF2D11A6812F4003218BF012216
:1001BC000192019A012A30D11D4A116841F01001B7
:1001CC001160116821F003011160116841F0020106
:1001DC0011605A685A605A685A605A6842F48062D0
:1001EC005A605A6822F47C125A605A6842F4E81237
:1001FC005A601A6842F080721A601A689201FCD533
:10020C005A6822F003025A605A6842F002025A609D
:10021C005A6802F00C02082AFAD14FF00062054B22
:10022C009A6002B0704700BF001002400000FFF857
:10023C000020024000ED00E0CB782DE9F041DA0619
:10024C0048BF8A780E8803F00F0548BF154316F097
:10025C00FF0F1AD000214FF0010C4FF00F0E026867
:10026C000CFA01F737EA06040BD18C000EFA04F8ED
:10027C0022EA080205FA04F4282B42EA040224D1EB
:10028C00476101310829EBD10260FF2E1BD90824EC
:10029C004FF0010C4FF00F0E41680CFA04F737EADF
:1002AC0006020CD1A200203A0EFA02F821EA08014B
:1002BC0005FA02F2282B41EA02010AD14761013406
:1002CC00102CEAD14160BDE8F081482B08BF0761D2
:1002DC00D7E7482B08BF0761F1E70161704741611F
:1002EC007047000070B50125017801F01F039D4097
:1002FC00C3784C09C3B10F4BDA684378D243C2F3CD
:10030C000222C2F1040603FA06F683780F2020FAC3
:10031C0002F213403343084A1B01DBB2114481F84B
:10032C00003342F8245070BD034B203443F8245062
:10033C00F9E700BF00ED00E000E100E0044B042809
:10034C001A680CBF42F0040222F004021A607047D3
:10035C0010E000E030B50D460446038A8A899BB252
:10036C00C98823F440530B4303828389A98823F45F
:10037C00B05323F00C030B43298987B00B436989D5
:10038C000B438381838A9BB223F440731343838290
:10039C0001A800F057F8DDE90313154A944208BF91
:1003AC0019461923A2894B43296810044CBF4900F4
:1003BC008900B3FBF1F16425B1FBF5F3A2891801B7
:1003CC00120405FB13130BD5DA003232B2FBF5F233
:1003DC0002F0070242EA00039BB2238107B030BD52
:1003EC001B013233B3FBF5F303F00F030343F3E7C5
:1003FC0000380140838919B143F40053838170475D
:10040C0023F400531B041B0CF8E701F01F0310B579
:10041C00C1F342140121012C01FA03F105D10C3076
:10042C0003683AB11943016010BD022C0CBF1030A7
:10043C001430F5E723EA0101F5E7C1F308018180E7
:10044C00704700001C4A10B5536803F00C03042BD2
:10045C0001D0082B1FD0194B03605368184CC3F301
:10046C000313E15C0368CB4043605168C1F3022184
:10047C00615C23FA01F181605168C1F3C221615CB6
:10048C00CB40C36052680F49C2F381328A5CB3FB24
:10049C00F2F3036110BD53685168C3F38343CC037B
:1004AC0003F1020302D408494B43D5E75168890391
:1004BC00F9D40249F8E700BF0010024000127A009C
:1004CC00080000200400002000093D00054B19B174
:1004DC0099690143996170479A6922EA00029A610D
:1004EC00704700BF00100240012307B58DF807309C
:1004FC0040F2251301A8ADF80430FFF7F3FE03B06A
:10050C005DF804FB064AD36823F4E0631B041B0C60
:10051C0043F0BF6343F40033D360FFF7E5BF00BF84
:10052C0000ED00E008B56FF00400FFF707FF064B85
:10053C00064A1B68B3FBF2F3054A13604FF47A7258
:10054C005343044A136008BD0000002000127A00D7
:10055C001C0000201800002000220B4B1B68584385
:10056C000A4B58609A601A6842F001021A601A68C5
:10057C0002F00112012AFAD01A6822F001021A6064
:10058C0000229A60704700BF1800002010E000E0C5
:10059C0007B501210820FFF799FF044B01A9044876
:1005AC000193FFF749FE03B05DF804FB0010031044
:1005BC00000C014013B50C4C01210420FFF786FF01
:1005CC000A4B01A920460193FFF736FE04238DF850
:1005DC0007304FF4806301A92046ADF80430FFF7D3
:1005EC002BFE02B010BD00BF000801400002031832
:1005FC0008B5FFF7CDFFBDE80840FFF7DBBF0000F3
:10060C001FB5044601214FF48040FFF75FFF002324
:10061C004FF4402200940A4C69462046CDE9013241
:10062C00ADF80C30FFF796FE0122204640F2255122
:10063C00FFF7EBFE01212046FFF7DCFE04B010BDF6
:10064C000038014008B5FFF76DFFFFF7D1FFFFF74A
:10065C0059FF4FF4E130FFF7D3FFFFF763FF4FF47F
:10066C0080510E48FFF73BFE0D4D0C4C4FF4FA70C9
:10067C00FFF772FF28466121FFF7DFFE4FF4805130
:10068C002046FFF72AFE4FF4FA70FFF765FF4FF490
:10069C0080512046FFF723FEE8E700BF000C014025
:1006AC00003801407047FEE7FEE7FEE7FEE77047C3
:0806BC00704770477047000011
:1006C40000A24A0402040608000000000102030418
:0806D4000102030406070809F6
:040000050800010DE1
:00000001FF
